:1000000008C1000034C1000032C1000030C100004E
:100010002EC100002CC100002AC1000028C1000030
:1000200026C1000024C1000022C1000020C1000040
:100030001EC100001CC100001AC1000018C1000050
:1000400016C1000014C1000012C1000010C1000060
:100050000EC100000CC100000AC10000ABC50000C9
:1000600006C1000066C300009AC3000000C1000082
:10007000FEC00000FCC00000FAC00000F8C0000094
:10008000F6C00000F4C00000F2C00000F0C00000A4
:10009000EEC00000ECC00000EAC00000E8C00000B4
:1000A000E6C00000E4C00000E2C00000E0C00000C4
:1000B000DEC00000DCC00000DAC00000D8C00000D4
:1000C000D6C00000D4C00000D2C00000D0C00000E4
:1000D000CEC00000CCC00000C1C30000F5C30000CA
:1000E000C6C00000FE060107F006F406FA0638074F
:1000F000050709070F07130717071D07210725071E
:1001000038072B072F07330700000A0B02090C0DD5
:100110000E080703040100000000000000000000BA
:1001200000000000000000000000000000000000CF
:10013000000000001211100000000000000000008C
:1001400000000000000000000000000000000102AC
:1001500010202008081020401020408002010201D9
:100160000804020101020408102040808040201091
:1001700008040201800402018040201008040201EA
:100180000804020101020408102040800102040852
:10019000102040800505050507050808080802022B
:1001A00002020A0A08080404040401010101010111
:1001B00001010303030303030303040707070C0CF4
:1001C0000C0C0C0C0C0C02020202060606060606BB
:1001D00006060B0B0B0B0B0B0B0B00002200250074
:1001E00028002B002E003100340002010000050120
:1001F00008010B0100002100240027002A002D0027
:100200003000330001010000040107010A0101046C
:10021000960411241FBECFEFD1E2DEBFCDBF00E0B8
:100220000CBF13E0A0E0B2E0E0EAFFE000E00BBFAB
:1002300002C007900D92AE30B107D9F724E0AEE0CE
:10024000B3E001C01D92A135B207E1F711E0C9E0AA
:10025000D1E000E005C021970109802FFE0196D66C
:10026000C730D10780E00807B1F78ED397C6C8CE54
:1002700061E08DE0FED561E08CE0FBD526E040E852
:1002800055E260E070E08BEA93E0F0C10895FF92E0
:100290000F931F93CF93DF938BEA93E0E7D0181669
:1002A00019060CF0A1C0C0E0D0E064E670E080E088
:1002B00090E0EFD48BEA93E0F3D08C01F82E4AE083
:1002C00050E0BE018EE093E065D4C330D10591F1DA
:1002D0003CF4C130D105F1F0C230D10521F109C0A3
:1002E000C530D10509F43EC0BCF1C630D10509F4D2
:1002F0004AC081E4F81609F454C061E172E08EE06E
:1003000093E096D34AE050E061E070E08EE093E045
:1003100041D447C0C8019927C0970A9708F44FC035
:100320006CE372E05DC082E4081709F43DC068E147
:1003300072E056C0C8019927C0970A9708F04BC0D1
:100340006DE472E08EE093E068D3602F8EE093E07E
:100350007FD3C4E0D0E02DC083E4081741F16FE102
:1003600072E03EC0C8019927C0970A97B8F56EE5BC
:1003700072E08EE093E051D3602F8EE093E068D37B
:10038000C6E0D0E016C083E2081308C066E272E05F
:100390008EE093E04DD3C0E0D0E00BC065E372E0A7
:1003A0001FC0C1E0D0E005C0C3E0D0E002C0C5E09E
:1003B000D0E02196C730D10509F077CF15C063E4AE
:1003C00072E08EE093E029D3602F8EE093E040D37B
:1003D000C2E0D0E0EECF67E572E002C068E672E00E
:1003E0008EE093E025D3E5CF80E0DF91CF911F91A0
:1003F0000F91FF90089526E040E855E260E070E03C
:100400008EE093E033D16FE672E08EE093E010D39C
:100410006BE472E08EE093E00BD362E972E08EE071
:1004200093E006D36EEC72E08EE093E001D361E0DE
:100430008DE05BC5CF93DF93CDB7DEB727970FB6BF
:10044000F894DEBF0FBECDBFCE01019611DFCE0105
:1004500001961DDFCE01019619DF27960FB6F8949D
:10046000DEBF0FBECDBFDF91CF910895FC01918D0E
:10047000228D892F90E0805C9F4F821B91098F73A2
:1004800099270895FC01918D828D981731F0828D06
:10049000E80FF11D858D90E008958FEF9FEF08958F
:1004A000FC01918D828D981761F0828DDF01A80F7C
:1004B000B11D5D968C91928D9F5F9F73928F90E09E
:1004C00008958FEF9FEF0895FC01538D448D252FE4
:1004D00030E0842F90E0821B930B541710F0CF96DE
:1004E00008950197089588EF93E0892B39F080E013
:1004F00090E0892B19F07CD1811124C080E090E03C
:10050000892B41F080E090E0892B21F00E940000CF
:1005100081111BC080E090E0892B41F080E090E0E9
:10052000892B21F00E940000811112C08DE894E017
:10053000892B99F080E090E0892B79F0EED1811140
:100540000AC008950E940000D9CF0E940000E2CFA7
:100550000E940000EBCF0C9400000895FC01848DF4
:10056000DF01A80FB11DA35ABF4F2C91848D90E0DD
:1005700001968F739927848FA689B7892C93A089B8
:10058000B1898C9180648C93938D848D981306C06F
:100590000288F389E02D80818F7D80830895EF921A
:1005A000FF920F931F93CF93DF93EC0181E0888F2D
:1005B0009B8D8C8D981305C0E889F989808185FD14
:1005C00023C0F62E0B8D10E00F5F1F4F0F73112706
:1005D000E02E8C8DE8120BC00FB607FCFACFE8892D
:1005E000F989808185FFF5CFCE01B8DFF2CF8B8D01
:1005F000FE01E80FF11DE35AFF4FF0820B8FEA89ED
:10060000FB898081806207C0EE89FF896083E88969
:10061000F98980818064808381E090E0DF91CF91CF
:100620001F910F91FF90EF900895CF93DF93EC010E
:10063000888D8823C1F0EA89FB89808185FD05C00A
:10064000A889B9898C9186FD0EC00FB607FCF5CF3D
:10065000808185FFF2CFA889B9898C9185FFEDCF84
:10066000CE017CDFE8CFDF91CF910895CF92DF926A
:10067000EF92FF921F93CF93DF93EC016A017B010E
:10068000122FE889F98982E080834115514E610576
:100690007105A9F060E079E08DE390E0A701960193
:1006A00053D4DA01C9010197A109B109B695A795FB
:1006B000979587959C01211580E13807A0F0E8897E
:1006C000F989108260E874E88EE190E0A701960154
:1006D0003BD4DA01C9010197A109B109B695A795E3
:1006E000979587959C01EC85FD853083EE85FF8588
:1006F0002083188EEC89FD891083EA89FB8980812B
:1007000080618083EA89FB89808188608083EA89AF
:10071000FB89808180688083EA89FB8980818F7D65
:100720008083DF91CF911F91FF90EF90DF90CF906A
:1007300008951F920F920FB60F9211240BB60F92CD
:100740002F938F939F93EF93FF93E0911E03F0916C
:100750001F038081E0912403F091250382FD12C0E4
:100760009081809127038F5F8F73209128038217D8
:1007700051F0E0912703F0E0E25FFC4F958F80930A
:10078000270301C08081FF91EF919F918F912F915D
:100790000F900BBE0F900FBE0F901F9018951F92D9
:1007A0000F920FB60F9211240BB60F922F933F9317
:1007B0004F935F936F937F938F939F93AF93BF9369
:1007C000EF93FF938EE093E0C9DEFF91EF91BF912D
:1007D000AF919F918F917F916F915F914F913F91D9
:1007E0002F910F900BBE0F900FBE0F901F9018957A
:1007F0008EE093E03BDE21E0892B09F420E0822F9C
:100800000895EEE0F3E01382128288EE93E0A0E018
:10081000B0E084839583A683B78381EF92E09183D0
:10082000808385EC90E09587848784EC90E09787BF
:10083000868780EC90E0918B808B81EC90E0938BAD
:10084000828B82EC90E0958B848B86EC90E0978B8A
:10085000868B118E128E138E148E08951F920F9216
:100860000FB60F9211240BB60F922F938F939F9375
:10087000EF93FF93E091BB03F091BC038081E09183
:10088000C103F091C20382FD12C090818091C40324
:100890008F5F8F732091C503821751F0E091C403DD
:1008A000F0E0E555FC4F958F8093C40301C0808133
:1008B000FF91EF919F918F912F910F900BBE0F9011
:1008C0000FBE0F901F9018951F920F920FB60F92A8
:1008D00011240BB60F922F933F934F935F936F9317
:1008E0007F938F939F93AF93BF93EF93FF938BEA85
:1008F00093E034DEFF91EF91BF91AF919F918F9183
:100900007F916F915F914F913F912F910F900BBE0F
:100910000F900FBE0F901F9018958BEA93E0A6DD05
:1009200021E0892B09F420E0822F0895EBEAF3E01F
:100930001382128288EE93E0A0E0B0E08483958376
:10094000A683B78381EF92E09183808385E391E072
:100950009587848784E391E09787868780E391E099
:10096000918B808B81E391E0938B828B82E391E08A
:10097000958B848B86E391E0978B868B118E128EFC
:10098000138E148E08950895BDD1FDDF34DDC3E7C5
:10099000D2E050DD2097E9F3A6DDFBCFCF92DF92C6
:1009A000EF92FF920F931F93CF93DF936C017A0125
:1009B0008B01C0E0D0E0CE15DF0581F0D8016D914C
:1009C0008D01D601ED91FC910190F081E02DC601E1
:1009D0001995892B11F02196EECF7E01C701DF9189
:1009E000CF911F910F91FF90EF90DF90CF900895DE
:1009F0006115710579F0FB0101900020E9F731974D
:100A0000AF01461B570BDC01ED91FC910280F38195
:100A1000E02D199480E090E00895EACFDC01ED919B
:100A2000FC910190F081E02D19946FEF72E0E0CF1E
:100A30000F931F93CF93DF93EC01DADF8C01CE018C
:100A4000F4DF800F911FDF91CF911F910F910895D7
:100A50000F931F93CF93DF93EC01E0DF8C01CE0166
:100A6000E4DF800F911FDF91CF911F910F910895C7
:100A70008F929F92AF92BF92EF92FF920F931F932C
:100A8000CF93DF93CDB7DEB7A1970FB6F894DEBF53
:100A90000FBECDBF7C01FA01CB0119A2223008F4B0
:100AA0002AE08E010F5D1F4F822E912CA12CB12CBC
:100AB000BF01A501940148D2F901CA0101501109F1
:100AC0006A3010F4605D01C0695CD8016C93232B1F
:100AD000242B252B69F7B801C7018ADFA1960FB631
:100AE000F894DEBF0FBECDBFDF91CF911F910F9164
:100AF000FF90EF90BF90AF909F908F900895CF920E
:100B0000DF92EF92FF920F931F93CF93DF93211504
:100B1000310581F4DC01ED91FC910190F081E02D33
:100B2000642FDF91CF911F910F91FF90EF90DF9095
:100B3000CF9019942A303105F1F477FF1BC06A0178
:100B40007B01EC016DE26ADF8C0144275527BA0175
:100B50004C195D096E097F092AE0CE0189DF800FFB
:100B6000911FDF91CF911F910F91FF90EF90DF9038
:100B7000CF9008952AE0DF91CF911F910F91FF90C0
:100B8000EF90DF90CF9074CF9A01AB01770F660B97
:100B9000770BB5CF0F931F93CF93DF93EC01F4DF67
:100BA0008C01CE0142DF800F911FDF91CF911F9109
:100BB0000F9108951F920F920FB60F9211242F9349
:100BC0003F938F939F93AF93BF93809149049091EC
:100BD0004A04A0914B04B0914C043091480423E0A6
:100BE000230F2D3720F40196A11DB11D05C026E865
:100BF000230F0296A11DB11D209348048093490440
:100C000090934A04A0934B04B0934C0480914D04FC
:100C100090914E04A0914F04B09150040196A11DF3
:100C2000B11D80934D0490934E04A0934F04B09354
:100C30005004BF91AF919F918F913F912F910F9051
:100C40000FBE0F901F9018953FB7F89480914D04F8
:100C500090914E04A0914F04B091500426B5A89BEA
:100C600005C02F3F19F00196A11DB11D3FBFBA2F3E
:100C7000A92F982F8827820F911DA11DB11DBC019E
:100C8000CD0142E0660F771F881F991F4A95D1F763
:100C900008958F929F92AF92BF92CF92DF92EF9280
:100CA000FF926B017C01D0DF4B015C01C114D104C8
:100CB000E104F104F1F047D1C7DFDC01CB01881971
:100CC0009909AA09BB09883E9340A105B10570F3B3
:100CD00021E0C21AD108E108F10888EE880E83E00D
:100CE000981EA11CB11CC114D104E104F10421F728
:100CF000DDCFFF90EF90DF90CF90BF90AF909F90AF
:100D00008F900895789484B5826084BD84B58160A5
:100D100084BD85B5826085BD85B5816085BDEEE603
:100D2000F0E0808181608083E1E8F0E010828081E2
:100D300082608083808181608083E0E8F0E0808150
:100D400081608083E1EBF0E0808184608083E0EB70
:100D5000F0E0808181608083E1E9F0E08081826061
:100D60008083808181608083E0E9F0E08081816020
:100D70008083E1EAF0E0808182608083808181600D
:100D80008083E0EAF0E0808181608083E1E2F1E04D
:100D9000808182608083808181608083E0E2F1E0F5
:100DA000808181608083EAE7F0E0808184608083D5
:100DB000808182608083808181608083808180687F
:100DC00080831092C100089590E0FC013197E231D8
:100DD000F10508F04DC08827EE58FF4F8F4FD6C061
:100DE000809180008F7703C0809180008F7D8093F9
:100DF0008000089580918000877FF9CF84B58F7738
:100E000002C084B58F7D84BD08958091B0008F7736
:100E100003C08091B0008F7D8093B00008958091D1
:100E200090008F7707C0809190008F7D03C08091E4
:100E30009000877F8093900008958091A0008F7725
:100E400007C08091A0008F7D03C08091A000877FA4
:100E50008093A0000895809120018F7707C0809132
:100E600020018F7D03C080912001877F8093200126
:100E70000895CF93DF9390E0FC01E25BFE4F249155
:100E8000FC01EC56FE4F8491882361F190E0880FBD
:100E9000991FFC01EC50FE4FC591D491FC01E65224
:100EA000FE4FA591B491611109C09FB7F894888154
:100EB000209582238883EC912E230BC0623061F44D
:100EC0009FB7F8948881322F309583238883EC91E3
:100ED0002E2B2C939FBF06C08FB7F894E8812E2B42
:100EE00028838FBFDF91CF9108951F93CF93DF9316
:100EF000282F30E0F901E85FFE4F8491F901E25BB1
:100F0000FE4FD491F901EC56FE4FC491CC23B9F0B9
:100F1000162F811159DFEC2FF0E0EE0FFF1FE65284
:100F2000FE4FA591B4919FB7F894111104C08C9114
:100F3000D095D82302C0EC91DE2BDC939FBFDF91CC
:100F4000CF911F9108950895A1E21A2EAA1BBB1BF1
:100F5000FD010DC0AA1FBB1FEE1FFF1FA217B30785
:100F6000E407F50720F0A21BB30BE40BF50B661F9B
:100F7000771F881F991F1A9469F76095709580955F
:100F800090959B01AC01BD01CF010895EE0FFF1FAD
:100F9000881F8BBF0790F691E02D1994F894FFCF2E
:100FA000436C61737320697320776F726B696E672E
:100FB0000043617365203000436173652032004354
:100FC0006173652034003D3D3D3D3D3D3D3D3D3D32
:100FD0003D3D3D3D004361736520360043617365CF
:100FE000203100536572766F31203D2000536572C9
:100FF000766F32203D2000436173652033005365D6
:1010000072766F33203D20004361736520350054B4
:1010100068697320697320746865206172647569FA
:101020006E6F20666F722048657861706F64212151
:101030002100546F20636F6E6E6563742C2073748F
:1010400061727420746865204C454420436F6E744F
:10105000726F6C6C657220417070206F6E20796FBA
:10106000757220536D61727470686F6E6500616E89
:101070006420636F6E6E65637420746F20426C75BC
:1010800065746F6F74682048432D30350000000090
:1010900000CF02CE04640215033602500242020D54
:0E10A0000A006E616E00696E66006F76660073
:00000001FF
