:1000000007C1000033C1000031C100002FC1000052
:100010002DC100002BC1000029C1000027C1000034
:1000200025C1000023C1000021C100001FC1000044
:100030001DC100001BC1000019C1000017C1000054
:1000400015C1000013C1000011C100000FC1000064
:100050000DC100000BC1000009C10000BEC30000BB
:1000600005C10000B1C20000E5C20000FFC00000F1
:10007000FDC00000FBC00000F9C00000F7C0000098
:10008000F5C00000F3C00000F1C00000EFC00000A8
:10009000EDC00000EBC00000E9C00000E7C00000B8
:1000A000E5C00000E3C00000E1C00000DFC00000C8
:1000B000DDC00000DBC00000D9C00000D7C00000D8
:1000C000D5C00000D3C00000D1C00000CFC00000E8
:1000D000CDC00000CBC00000C9C00000C7C00000F8
:1000E000C5C00000B304B604A504A904AF04ED0420
:1000F000BA04BE04C404C804CC04D204D604DA048E
:10010000ED04E004E404E80400000A0B02090C0D0D
:100110000E080703040100000000000000000000BA
:1001200000000000000000000000000000000000CF
:10013000000000001211100000000000000000008C
:1001400000000000000000000000000000000102AC
:1001500010202008081020401020408002010201D9
:100160000804020101020408102040808040201091
:1001700008040201800402018040201008040201EA
:100180000804020101020408102040800102040852
:10019000102040800505050507050808080802022B
:1001A00002020A0A08080404040401010101010111
:1001B00001010303030303030303040707070C0CF4
:1001C0000C0C0C0C0C0C02020202060606060606BB
:1001D00006060B0B0B0B0B0B0B0B00002200250074
:1001E00028002B002E003100340002010000050120
:1001F00008010B0100002100240027002A002D0027
:100200003000330001010000040107010A014C0322
:1002100011241FBECFEFD1E2DEBFCDBF00E00CBF87
:1002200012E0A0E0B2E0E8E0FBE000E00BBF02C0BB
:1002300007900D92A63BB107D9F723E0A6EBB2E0F9
:1002400001C01D92AD35B207E1F711E0C8E0D1E081
:1002500000E005C021970109802FFE014BD4C73073
:10026000D10780E00807B1F745D24CC4C9CE61E0A0
:100270008DE0B4D361E08CE0B1D326E040E855E2F4
:1002800060E070E087EB92E03CD160E072E087EBE9
:1002900092E083D263E272E087EB92E07ED265E285
:1002A00072E087EB92E079D261E672E087EB92E050
:1002B00074D261E08DE0CEC387EB92E021D01816B6
:1002C0001906ECF487EB92E035D08093B602682FE4
:1002D00087EB92E072D28091B602813331F461E013
:1002E0008CE0B8D360E872E007C0803341F460E08E
:1002F0008CE0B0D36AE872E087EB92E04EC20895DA
:10030000FC01918D228D892F90E0805C9F4F821B94
:1003100091098F7399270895FC01918D828D98170B
:1003200031F0828DE80FF11D858D90E008958FEFFB
:100330009FEF0895FC01918D828D981761F0828D59
:10034000DF01A80FB11D5D968C91928D9F5F9F7309
:10035000928F90E008958FEF9FEF0895FC01538DE9
:10036000448D252F30E0842F90E0821B930B54178F
:1003700010F0CF9608950197089583E493E0892BB8
:1003800039F080E090E0892B19F07DD1811125C0F2
:1003900080E090E0892B41F080E090E0892B21F013
:1003A0000E94000081111CC080E090E0892B41F088
:1003B00080E090E0892B21F00E940000811113C0A1
:1003C00080E090E0892BA1F080E090E0892B81F023
:1003D0000E94000081110AC008950E940000D8CF39
:1003E0000E940000E1CF0E940000EACF0C940000C0
:1003F0000895FC01848DDF01A80FB11DA35ABF4FE2
:100400002C91848D90E001968F739927848FA68913
:10041000B7892C93A089B1898C9180648C93938D3A
:10042000848D981306C00288F389E02D80818F7D2A
:1004300080830895EF92FF920F931F93CF93DF93E2
:10044000EC0181E0888F9B8D8C8D981305C0E88925
:10045000F989808185FD23C0F62E0B8D10E00F5F9A
:100460001F4F0F731127E02E8C8DE8120BC00FB6B3
:1004700007FCFACFE889F989808185FFF5CFCE01A5
:10048000B8DFF2CF8B8DFE01E80FF11DE35AFF4F6D
:10049000F0820B8FEA89FB898081806207C0EE8938
:1004A000FF896083E889F98980818064808381E0A5
:1004B00090E0DF91CF911F910F91FF90EF90089501
:1004C000CF93DF93EC01888D8823C1F0EA89FB8903
:1004D000808185FD05C0A889B9898C9186FD0EC0F3
:1004E0000FB607FCF5CF808185FFF2CFA889B989C7
:1004F0008C9185FFEDCFCE017CDFE8CFDF91CF91EE
:100500000895CF92DF92EF92FF921F93CF93DF93E4
:10051000EC016A017B01122FE889F98982E080836E
:100520004115514E61057105A9F060E079E08DE358
:1005300090E0A7019601BCD2DA01C9010197A10997
:10054000B109B695A795979587959C01211580E1EE
:100550003807A0F0E889F989108260E874E88EE134
:1005600090E0A7019601A4D2DA01C9010197A1097F
:10057000B109B695A795979587959C01EC85FD8562
:100580003083EE85FF852083188EEC89FD891083EA
:10059000EA89FB89808180618083EA89FB89808187
:1005A00088608083EA89FB89808180688083EA890A
:1005B000FB8980818F7D8083DF91CF911F91FF9098
:1005C000EF90DF90CF9008951F920F920FB60F9289
:1005D00011240BB60F922F938F939F93EF93FF935A
:1005E000E091C702F091C8028081E091CD02F091C4
:1005F000CE0282FD12C090818091D0028F5F8F73F6
:100600002091D102821751F0E091D002F0E0E9543C
:10061000FD4F958F8093D00201C08081FF91EF91B3
:100620009F918F912F910F900BBE0F900FBE0F9047
:100630001F9018951F920F920FB60F9211240BB6B0
:100640000F922F933F934F935F936F937F938F936B
:100650009F93AF93BF93EF93FF9387EB92E0C9DE35
:10066000FF91EF91BF91AF919F918F917F916F918A
:100670005F914F913F912F910F900BBE0F900FBE46
:100680000F901F90189587EB92E03ADE21E0892BBE
:1006900009F420E0822F0895E7EBF2E01382128242
:1006A00088EE93E0A0E0B0E084839583A683B783CF
:1006B00089E992E09183808385EC90E09587848737
:1006C00084EC90E09787868780EC90E0918B808B1C
:1006D00081EC90E0938B828B82EC90E0958B848B05
:1006E00086EC90E0978B868B118E128E138E148E73
:1006F00008950895BCD0FDDFBADDCDEBD1E0DCDD9F
:100700002097E9F33ADEFBCFCF92DF92EF92FF9290
:100710000F931F93CF93DF936C017A018B01C0E09D
:10072000D0E0CE15DF0581F0D8016D918D01D601A5
:10073000ED91FC910190F081E02DC6011995892B76
:1007400011F02196EECF7E01C701DF91CF911F916D
:100750000F91FF90EF90DF90CF9008956115710594
:1007600079F0FB0101900020E9F73197AF01461BBA
:10077000570BDC01ED91FC910280F381E02D19947F
:1007800080E090E00895DC01ED91FC910190F08112
:10079000E02D199467EA72E0E1CF0F931F93CF9396
:1007A000DF93EC01DBDF8C01CE01F4DF800F911FC2
:1007B000DF91CF911F910F9108950F931F93CF93C6
:1007C000DF93EC01E0DF8C01CE01E4DF800F911FAD
:1007D000DF91CF911F910F9108951F920F920FB645
:1007E0000F9211242F933F938F939F93AF93BF93B7
:1007F0008091550390915603A0915703B0915803EF
:100800003091540323E0230F2D3720F40196A11DCE
:10081000B11D05C026E8230F0296A11DB11D20932E
:1008200054038093550390935603A0935703B093BA
:1008300058038091590390915A03A0915B03B091A2
:100840005C030196A11DB11D8093590390935A0337
:10085000A0935B03B0935C03BF91AF919F918F9185
:100860003F912F910F900FBE0F901F901895789485
:1008700084B5826084BD84B5816084BD85B58260A5
:1008800085BD85B5816085BDEEE6F0E08081816043
:100890008083E1E8F0E01082808182608083808143
:1008A00081608083E0E8F0E0808181608083E1EB1B
:1008B000F0E0808184608083E0EBF0E08081816003
:1008C0008083E1E9F0E080818260808380818160C3
:1008D0008083E0E9F0E0808181608083E1EAF0E0FC
:1008E000808182608083808181608083E0EAF0E0A3
:1008F000808181608083E1E2F1E080818260808399
:10090000808181608083E0E2F1E08081816080838A
:10091000EAE7F0E080818460808380818260808368
:100920008081816080838081806880831092C10093
:10093000089590E0FC013197E231F10508F04DC0D7
:100940008827EE58FF4F8F4FD5C0809180008F775A
:1009500003C0809180008F7D8093800008958091F6
:100960008000877FF9CF84B58F7702C084B58F7DF3
:1009700084BD08958091B0008F7703C08091B0004E
:100980008F7D8093B0000895809190008F7707C08D
:10099000809190008F7D03C080919000877F80932D
:1009A000900008958091A0008F7707C08091A000EB
:1009B0008F7D03C08091A000877F8093A000089561
:1009C000809120018F7707C0809120018F7D03C027
:1009D00080912001877F809320010895CF93DF933A
:1009E00090E0FC01E25BFE4F2491FC01EC56FE4FCF
:1009F0008491882361F190E0880F991FFC01EC50ED
:100A0000FE4FC591D491FC01E652FE4FA591B491E1
:100A1000611109C09FB7F89488812095822388834B
:100A2000EC912E230BC0623061F49FB7F89488815B
:100A3000322F309583238883EC912E2B2C939FBFEC
:100A400006C08FB7F894E8812E2B28838FBFDF91E3
:100A5000CF9108951F93CF93DF93282F30E0F901B2
:100A6000E85FFE4F8491F901E25BFE4FD491F901FA
:100A7000EC56FE4FC491CC23B9F0162F811159DFEB
:100A8000EC2FF0E0EE0FFF1FE652FE4FA591B49160
:100A90009FB7F894111104C08C91D095D82302C04F
:100AA000EC91DE2BDC939FBFDF91CF911F910895D6
:100AB000A1E21A2EAA1BBB1BFD010DC0AA1FBB1F62
:100AC000EE1FFF1FA217B307E407F50720F0A21BD4
:100AD000B30BE40BF50B661F771F881F991F1A9441
:100AE00069F760957095809590959B01AC01BD016B
:100AF000CF010895EE0FFF1F881F8BBF0790F6915F
:080B0000E02D1994F894FFCFD9
:100B0800546869732069732074686520617264751C
:100B1800696E6F20666F722048657861706F642116
:100B28002121002000546F20636F6E6E6563742C62
:100B380020737461727420746865204C45442043A6
:100B48006F6E74726F6C6C657220417070206F6E7E
:100B580020796F757220536D61727470686F6E655D
:100B680000616E6420636F6E6E65637420746F201D
:100B7800426C7565746F6F74682048432D3035007A
:100B88004C4544206973204F4E004C4544206973FE
:100B9800204F464600000000001A028403AE0160A0
:100BA8000280019A018C010D0A006E616E00696E67
:060BB80066006F76660086
:00000001FF
