:100000000FC100003BC1000039C1000037C1000032
:1000100035C1000033C1000031C100002FC1000014
:100020002DC100002BC1000029C1000027C1000024
:1000300025C1000023C1000021C100001FC1000034
:100040001DC100001BC1000019C1000017C1000044
:1000500015C1000013C1000011C1000083C50000DC
:100060000DC100003EC3000072C3000007C10000C4
:1000700005C1000003C1000001C10000FFC0000075
:10008000FDC00000FBC00000F9C00000F7C0000088
:10009000F5C00000F3C00000F1C00000EFC0000098
:1000A000EDC00000EBC00000E9C00000E7C00000A8
:1000B000E5C00000E3C00000E1C00000DFC00000B8
:1000C000DDC00000DBC00000D9C00000D7C00000C8
:1000D000D5C00000D3C0000099C30000CDC300000C
:1000E000CDC0000091019F01AE01BC01C401D2014D
:1000F000E00178067B066A066E067406B2067F0685
:10010000830689068D06910697069B069F06B20612
:10011000A506A906AD0600000A0B02090C0D0E0883
:1001200007030401000000000000000000000000C0
:1001300000000000000000000000000000000000BF
:10014000000012111000000000000000000000007C
:10015000000000000000000000000000010210206C
:1001600020080810204010204080020102010804ED
:100170000201010204081020408080402010080481
:1001800002018004020180402010080402010804DA
:10019000020101020408102040800102040810201E
:1001A0004080050505050705080808080202020247
:1001B0000A0A080804040404010101010101010103
:1001C0000303030303030303040707070C0C0C0CCE
:1001D0000C0C0C0C020202020606060606060606B7
:1001E0000B0B0B0B0B0B0B0B000022002500280048
:1001F0002B002E003100340002010000050108012F
:100200000B0100002100240027002A002D003000EF
:10021000330001010000040107010A01D9036E0443
:1002200011241FBECFEFD1E2DEBFCDBF00E00CBF77
:1002300013E0A0E0B2E0E2E9FEE000E00BBF02C0A4
:1002400007900D92A032B107D9F724E0A0E2B3E005
:1002500001C01D92A536B207E1F711E0C0E1D1E07F
:1002600000E005C021970109802FFE0108D6CE309D
:10027000D10780E00807B1F75FD309C6C1CE61E0BE
:100280008DE071D561E08CE06ED526E040E855E266
:1002900060E070E082E293E0C1D160E072E082E26F
:1002A00093E09ED364E872E082E293E099D363E244
:1002B00072E082E293E094D36FE572E082E293E031
:1002C0008FD361E08DE08BC51F93CF93DF9382E2E4
:1002D00093E0A4D0181619060CF09CC082E293E0BB
:1002E000B7D0EC01682F82E293E08AD36EE772E028
:1002F00082E293E06AD360912003709121034AE087
:1003000050E082E293E01ED4E0912003F0912103BB
:10031000E730F10508F05EC08827EE58FF4F8F4F99
:10032000AEC5C13449F481E090E0909321038093FD
:10033000200366E872E068C06FE872E065C0CE0135
:100340009927C0970A9708F048C082E090E0909300
:1003500021038093200369EC72E04AC0C23449F45F
:1003600083E090E0909321038093200367E972E09B
:100370004BC060EA72E048C0CE019927C0970A9747
:1003800078F16BED72E040C0C33449F485E090E051
:10039000909321038093200368EA72E035C061EBFB
:1003A00072E032C0CE019927C0970A9758F586E0CF
:1003B00090E090932103809320036DEE72E018C0CB
:1003C000C33229F4109221031092200323C069EB59
:1003D00072E01AC061EC72E017C063ED72E014C005
:1003E00084E090E0909321038093200363EE72E019
:1003F00082E293E0EAD26C2F82E293E0DF91CF9128
:100400001F91FEC267EF72E082E293E0DF91CF912D
:100410001F91E6C2DF91CF911F910895FC01918D4C
:10042000228D892F90E0805C9F4F821B91098F73F2
:1004300099270895FC01918D828D981731F0828D56
:10044000E80FF11D858D90E008958FEF9FEF0895DF
:10045000FC01918D828D981761F0828DDF01A80FCC
:10046000B11D5D968C91928D9F5F9F73928F90E0EE
:1004700008958FEF9FEF0895FC01538D448D252F34
:1004800030E0842F90E0821B930B541710F0CF962E
:1004900008950197089580ED93E0892B39F080E06D
:1004A00090E0892B19F07CD1811124C080E090E08C
:1004B000892B41F080E090E0892B21F00E94000020
:1004C00081111BC080E090E0892B41F080E090E03A
:1004D000892B21F00E940000811112C085E694E072
:1004E000892B99F080E090E0892B79F0EED1811191
:1004F0000AC008950E940000D9CF0E940000E2CFF8
:100500000E940000EBCF0C9400000895FC01848D44
:10051000DF01A80FB11DA35ABF4F2C91848D90E02D
:1005200001968F739927848FA689B7892C93A08908
:10053000B1898C9180648C93938D848D981306C0BF
:100540000288F389E02D80818F7D80830895EF926A
:10055000FF920F931F93CF93DF93EC0181E0888F7D
:100560009B8D8C8D981305C0E889F989808185FD64
:1005700023C0F62E0B8D10E00F5F1F4F0F73112756
:10058000E02E8C8DE8120BC00FB607FCFACFE8897D
:10059000F989808185FFF5CFCE01B8DFF2CF8B8D51
:1005A000FE01E80FF11DE35AFF4FF0820B8FEA893D
:1005B000FB898081806207C0EE89FF896083E889BA
:1005C000F98980818064808381E090E0DF91CF9120
:1005D0001F910F91FF90EF900895CF93DF93EC015F
:1005E000888D8823C1F0EA89FB89808185FD05C05B
:1005F000A889B9898C9186FD0EC00FB607FCF5CF8E
:10060000808185FFF2CFA889B9898C9185FFEDCFD4
:10061000CE017CDFE8CFDF91CF910895CF92DF92BA
:10062000EF92FF921F93CF93DF93EC016A017B015E
:10063000122FE889F98982E080834115514E6105C6
:100640007105A9F060E079E08DE390E0A7019601E3
:10065000F4D3DA01C9010197A109B109B695A795AB
:10066000979587959C01211580E13807A0F0E889CE
:10067000F989108260E874E88EE190E0A7019601A4
:10068000DCD3DA01C9010197A109B109B695A79593
:10069000979587959C01EC85FD853083EE85FF85D8
:1006A0002083188EEC89FD891083EA89FB8980817B
:1006B00080618083EA89FB89808188608083EA8900
:1006C000FB89808180688083EA89FB8980818F7DB6
:1006D0008083DF91CF911F91FF90EF90DF90CF90BB
:1006E00008951F920F920FB60F9211240BB60F921E
:1006F0002F938F939F93EF93FF93E0913203F091A9
:1007000033038081E0913803F091390382FD12C0F8
:10071000908180913B038F5F8F7320913C03821700
:1007200051F0E0913B03F0E0EE5DFC4F958F80933C
:100730003B0301C08081FF91EF919F918F912F9199
:100740000F900BBE0F900FBE0F901F9018951F9229
:100750000F920FB60F9211240BB60F922F933F9367
:100760004F935F936F937F938F939F93AF93BF93B9
:10077000EF93FF9382E293E0C9DEFF91EF91BF9187
:10078000AF919F918F917F916F915F914F913F9129
:100790002F910F900BBE0F900FBE0F901F901895CA
:1007A00082E293E03BDE21E0892B09F420E0822FF6
:1007B0000895E2E2F3E01382128288EE93E0A0E073
:1007C000B0E084839583A683B78383E093E091832D
:1007D000808385EC90E09587848784EC90E0978710
:1007E000868780EC90E0918B808B81EC90E0938BFE
:1007F000828B82EC90E0958B848B86EC90E0978BDB
:10080000868B118E128E138E148E08951F920F9266
:100810000FB60F9211240BB60F922F938F939F93C5
:10082000EF93FF93E091CF03F091D0038081E091AB
:10083000D503F091D60382FD12C090818091D80338
:100840008F5F8F732091D903821751F0E091D80305
:10085000F0E0E154FC4F958F8093D80301C0808174
:10086000FF91EF919F918F912F910F900BBE0F9061
:100870000FBE0F901F9018951F920F920FB60F92F8
:1008800011240BB60F922F933F934F935F936F9367
:100890007F938F939F93AF93BF93EF93FF938FEBD0
:1008A00093E034DEFF91EF91BF91AF919F918F91D3
:1008B0007F916F915F914F913F912F910F900BBE60
:1008C0000F900FBE0F901F9018958FEB93E0A6DD51
:1008D00021E0892B09F420E0822F0895EFEBF3E06B
:1008E0001382128288EE93E0A0E0B0E084839583C7
:1008F000A683B78383E093E09183808385E391E0CF
:100900009587848784E391E09787868780E391E0E9
:10091000918B808B81E391E0938B828B82E391E0DA
:10092000958B848B86E391E0978B868B118E128E4C
:10093000138E148E089508955FD1FDDFA0DCCBE403
:10094000D2E0C2DC2097E9F3A6DDFBCFCF92DF92A5
:10095000EF92FF920F931F93CF93DF936C017A0175
:100960008B01C0E0D0E0CE15DF0581F0D8016D919C
:100970008D01D601ED91FC910190F081E02DC60131
:100980001995892B11F02196EECF7E01C701DF91D9
:10099000CF911F910F91FF90EF90DF90CF9008952E
:1009A0006115710579F0FB0101900020E9F731979D
:1009B000AF01461B570BDC01ED91FC910280F381E6
:1009C000E02D199480E090E00895EACFDC01ED91EC
:1009D000FC910190F081E02D199461E173E0E0CF8A
:1009E0000F931F93CF93DF93EC01DADF8C01CE01DD
:1009F000F4DF800F911FDF91CF911F910F91089528
:100A00000F931F93CF93DF93EC01E0DF8C01CE01B6
:100A1000E4DF800F911FDF91CF911F910F91089517
:100A20008F929F92AF92BF92EF92FF920F931F937C
:100A3000CF93DF93CDB7DEB7A1970FB6F894DEBFA3
:100A40000FBECDBF7C01FA01CB0119A2223008F400
:100A50002AE08E010F5D1F4F822E912CA12CB12C0C
:100A6000BF01A5019401E9D1F901CA0101501109A1
:100A70006A3010F4605D01C0695CD8016C93232B6F
:100A8000242B252B69F7B801C7018ADFA1960FB681
:100A9000F894DEBF0FBECDBFDF91CF911F910F91B4
:100AA000FF90EF90BF90AF909F908F900895CF925E
:100AB000DF92EF92FF920F931F93CF93DF93211555
:100AC000310581F4DC01ED91FC910190F081E02D84
:100AD000642FDF91CF911F910F91FF90EF90DF90E6
:100AE000CF9019942A303105F1F477FF1BC06A01C9
:100AF0007B01EC016DE26ADF8C0144275527BA01C6
:100B00004C195D096E097F092AE0CE0189DF800F4B
:100B1000911FDF91CF911F910F91FF90EF90DF9088
:100B2000CF9008952AE0DF91CF911F910F91FF9010
:100B3000EF90DF90CF9074CF9A01AB01770F660BE7
:100B4000770BB5CF0F931F93CF93DF93EC01F4DFB7
:100B50008C01CE0142DF800F911FDF91CF911F9159
:100B60000F9108951F920F920FB60F9211242F9399
:100B70003F938F939F93AF93BF9380915D04909128
:100B80005E04A0915F04B091600430915C0423E0A6
:100B9000230F2D3720F40196A11DB11D05C026E8B5
:100BA000230F0296A11DB11D20935C0480935D0468
:100BB00090935E04A0935F04B093600480916104FD
:100BC00090916204A0916304B09164040196A11D08
:100BD000B11D8093610490936204A0936304B09369
:100BE0006404BF91AF919F918F913F912F910F908E
:100BF0000FBE0F901F901895789484B5826084BDC5
:100C000084B5816084BD85B5826085BD85B5816010
:100C100085BDEEE6F0E0808181608083E1E8F0E070
:100C20001082808182608083808181608083E0E89F
:100C3000F0E0808181608083E1EBF0E0808184607E
:100C40008083E0EBF0E0808181608083E1E9F0E087
:100C5000808182608083808181608083E0E9F0E030
:100C6000808181608083E1EAF0E08081826080831E
:100C7000808181608083E0EAF0E080818160808310
:100C8000E1E2F1E080818260808380818160808305
:100C9000E0E2F1E0808181608083EAE7F0E080813A
:100CA0008460808380818260808380818160808392
:100CB0008081806880831092C100089590E0FC01DB
:100CC0003197E231F10508F04DC08827E758FF4F12
:100CD0008F4FD5C0809180008F7703C080918000B6
:100CE0008F7D80938000089580918000877FF9CF69
:100CF00084B58F7702C084B58F7D84BD08958091BF
:100D0000B0008F7703C08091B0008F7D8093B000DA
:100D10000895809190008F7707C0809190008F7D1B
:100D200003C080919000877F809390000895809108
:100D3000A0008F7707C08091A0008F7D03C08091B5
:100D4000A000877F8093A0000895809120018F7775
:100D500007C0809120018F7D03C080912001877F93
:100D6000809320010895CF93DF9390E0FC01E45A33
:100D7000FE4F2491FC01EE55FE4F8491882361F1D2
:100D800090E0880F991FFC01EE5FFD4FC591D49153
:100D9000FC01E851FE4FA591B491611109C09FB7C4
:100DA000F8948881209582238883EC912E230BC0B0
:100DB000623061F49FB7F8948881322F3095832395
:100DC0008883EC912E2B2C939FBF06C08FB7F8948D
:100DD000E8812E2B28838FBFDF91CF9108951F9339
:100DE000CF93DF93282F30E0F901EA5EFE4F849124
:100DF000F901E45AFE4FD491F901EE55FE4FC4912A
:100E0000CC23B9F0162F811159DFEC2FF0E0EE0F53
:100E1000FF1FE851FE4FA591B4919FB7F8941111AF
:100E200004C08C91D095D82302C0EC91DE2BDC93CA
:100E30009FBFDF91CF911F910895A1E21A2EAA1BA7
:100E4000BB1BFD010DC0AA1FBB1FEE1FFF1FA2177A
:100E5000B307E407F50720F0A21BB30BE40BF50B77
:100E6000661F771F881F991F1A9469F76095709500
:100E7000809590959B01AC01BD01CF010895EE0FC7
:100E8000FF1F881F8BBF0790F691E02D1994F894EF
:020E9000FFCF92
:100E9200546869732069732074686520617264758F
:100EA200696E6F20666F722048657861706F642189
:100EB200212100546F20636F6E6E6563742C207362
:100EC2007461727420746865204C454420436F6ECF
:100ED20074726F6C6C657220417070206F6E207935
:100EE2006F757220536D61727470686F6E65006108
:100EF2006E6420636F6E6E65637420746F20426C43
:100F02007565746F6F74682048432D303500436FE8
:100F1200756E743A200064617461203D2041004185
:100F22007273636820310064617461203D20420065
:100F3200417273636820330064617461203D204311
:100F42000041727363682035004172736368203711
:100F52000064656661756C7400536572766F31204A
:100F62003D200041727363682032004172736368EE
:100F7200203400536572766F32203D200053657233
:100F8200766F33203D200041727363682036000083
:100F9200000000A702A6043C02ED020E0228021A7B
:100FA200020D0A006E616E00696E66006F76660061
:00000001FF
