:1000000008C1000034C1000032C1000030C100004E
:100010002EC100002CC100002AC1000028C1000030
:1000200026C1000024C1000022C1000020C1000040
:100030001EC100001CC100001AC1000018C1000050
:1000400016C1000014C1000012C1000010C1000060
:100050000EC100000CC100000AC100004AC500002A
:1000600006C1000005C3000039C3000000C1000044
:10007000FEC00000FCC00000FAC00000F8C0000094
:10008000F6C00000F4C00000F2C00000F0C00000A4
:10009000EEC00000ECC00000EAC00000E8C00000B4
:1000A000E6C00000E4C00000E2C00000E0C00000C4
:1000B000DEC00000DCC00000DAC00000D8C00000D4
:1000C000D6C00000D4C00000D2C00000D0C00000E4
:1000D000CEC00000CCC0000060C3000094C300008C
:1000E000C6C000003F064206310635063B067906CB
:1000F00046064A065006540658065E06620666061E
:1001000079066C067006740600000A0B02090C0DD5
:100110000E080703040100000000000000000000BA
:1001200000000000000000000000000000000000CF
:10013000000000001211100000000000000000008C
:1001400000000000000000000000000000000102AC
:1001500010202008081020401020408002010201D9
:100160000804020101020408102040808040201091
:1001700008040201800402018040201008040201EA
:100180000804020101020408102040800102040852
:10019000102040800505050507050808080802022B
:1001A00002020A0A08080404040401010101010111
:1001B00001010303030303030303040707070C0CF4
:1001C0000C0C0C0C0C0C02020202060606060606BB
:1001D00006060B0B0B0B0B0B0B0B00002200250074
:1001E00028002B002E003100340002010000050120
:1001F00008010B0100002100240027002A002D0027
:100200003000330001010000040107010A01A003CE
:10021000350411241FBECFEFD1E2DEBFCDBF00E019
:100220000CBF12E0A0E0B2E0E0E2FEE000E00BBFB5
:1002300002C007900D92A63FB107D9F724E0A6EFC0
:10024000B2E001C01D92A933B207E1F711E0C9E0A5
:10025000D1E000E005C021970109802FFE01D6D52D
:10026000C730D10780E00807B1F72DD3D7C5C8CE76
:1002700061E08DE03FD561E08CE03CD526E040E8D0
:1002800055E260E070E086EF92E08FD160E072E0CE
:1002900086EF92E06CD36CE872E086EF92E067D371
:1002A00063E272E086EF92E062D36FE572E086EF80
:1002B00092E05DD361E08DE059C5CF93DF9386EF87
:1002C00092E073D0181619060CF06CC086EF92E01D
:1002D00086D0EC01682F86EF92E059D3CE019927A2
:1002E0008134910509F439C02CF5839709F053C086
:1002F0006EEA72E086EF92E02FD34AE050E060E0D1
:1003000070E086EF92E0E5D363EC72E086EF92E076
:1003100023D34AE050E060E070E086EF92E0D9D36A
:1003200068EC72E086EF92E017D34AE050E060E0BC
:1003300070E02CC082349105E9F08334910559F5C1
:1003400086EF92E04CD06EE972E086EF92E004D343
:100350004AE050E063E170E019C086EF92E03FD0E0
:100360006EE772E086EF92E0F7D24AE050E061E19A
:1003700070E00CC086EF92E032D06EE872E086EF5B
:1003800092E0EAD24AE050E062E170E086EF92E06B
:10039000DF91CF919EC36DEC72E086EF92E0DF912A
:1003A000CF91E5C2DF91CF910895FC01918D228D0F
:1003B000892F90E0805C9F4F821B91098F73992752
:1003C0000895FC01918D828D981731F0828DE80F90
:1003D000F11D858D90E008958FEF9FEF0895FC014A
:1003E000918D828D981761F0828DDF01A80FB11D6C
:1003F0005D968C91928D9F5F9F73928F90E0089590
:100400008FEF9FEF0895FC01538D448D252F30E031
:10041000842F90E0821B930B541710F0CF96089511
:100420000197089587E993E0892B39F080E090E007
:10043000892B19F07CD1811124C080E090E0892BB8
:1004400041F080E090E0892B21F00E9400008111B2
:100450001BC080E090E0892B41F080E090E0892B88
:1004600021F00E940000811112C08CE294E0892BDF
:1004700099F080E090E0892B79F0EED181110AC0EB
:1004800008950E940000D9CF0E940000E2CF0E9490
:100490000000EBCF0C9400000895FC01848DDF0177
:1004A000A80FB11DA35ABF4F2C91848D90E00196E7
:1004B0008F739927848FA689B7892C93A089B189D6
:1004C0008C9180648C93938D848D981306C00288E0
:1004D000F389E02D80818F7D80830895EF92FF92D4
:1004E0000F931F93CF93DF93EC0181E0888F9B8D57
:1004F0008C8D981305C0E889F989808185FD23C01A
:10050000F62E0B8D10E00F5F1F4F0F731127E02E9B
:100510008C8DE8120BC00FB607FCFACFE889F98979
:10052000808185FFF5CFCE01B8DFF2CF8B8DFE0144
:10053000E80FF11DE35AFF4FF0820B8FEA89FB8928
:100540008081806207C0EE89FF896083E889F9892C
:1005500080818064808381E090E0DF91CF911F9162
:100560000F91FF90EF900895CF93DF93EC01888D6A
:100570008823C1F0EA89FB89808185FD05C0A889AF
:10058000B9898C9186FD0EC00FB607FCF5CF80812E
:1005900085FFF2CFA889B9898C9185FFEDCFCE0177
:1005A0007CDFE8CFDF91CF910895CF92DF92EF9279
:1005B000FF921F93CF93DF93EC016A017B01122F0F
:1005C000E889F98982E080834115514E6105710502
:1005D000A9F060E079E08DE390E0A7019601F4D303
:1005E000DA01C9010197A109B109B695A7959795B7
:1005F00087959C01211580E13807A0F0E889F989E9
:10060000108260E874E88EE190E0A7019601DCD3E7
:10061000DA01C9010197A109B109B695A795979586
:1006200087959C01EC85FD853083EE85FF852083D1
:10063000188EEC89FD891083EA89FB8980818061AD
:100640008083EA89FB89808188608083EA89FB89CD
:10065000808180688083EA89FB8980818F7D8083A7
:10066000DF91CF911F91FF90EF90DF90CF90089591
:100670001F920F920FB60F9211240BB60F922F9369
:100680008F939F93EF93FF93E0910603F0910703FD
:100690008081E0910C03F0910D0382FD12C09081E6
:1006A00080910F038F5F8F7320911003821751F099
:1006B000E0910F03F0E0EA50FD4F958F80930F0318
:1006C00001C08081FF91EF919F918F912F910F90A9
:1006D0000BBE0F900FBE0F901F9018951F920F9298
:1006E0000FB60F9211240BB60F922F933F934F9397
:1006F0005F936F937F938F939F93AF93BF93EF938A
:10070000FF9386EF92E0C9DEFF91EF91BF91AF9129
:100710009F918F917F916F915F914F913F912F9119
:100720000F900BBE0F900FBE0F901F90189586EF85
:1007300092E03BDE21E0892B09F420E0822F08952E
:10074000E6EFF2E01382128288EE93E0A0E0B0E0E0
:1007500084839583A683B78389ED92E09183808318
:1007600085EC90E09587848784EC90E09787868776
:1007700080EC90E0918B808B81EC90E0938B828B6E
:1007800082EC90E0958B848B86EC90E0978B868B47
:10079000118E128E138E148E08951F920F920FB623
:1007A0000F9211240BB60F922F938F939F93EF9379
:1007B000FF93E091A303F091A4038081E091A9034A
:1007C000F091AA0382FD12C090818091AC038F5FEB
:1007D0008F732091AD03821751F0E091AC03F0E0EC
:1007E000ED56FC4F958F8093AC0301C08081FF9143
:1007F000EF919F918F912F910F900BBE0F900FBE95
:100800000F901F9018951F920F920FB60F92112400
:100810000BB60F922F933F934F935F936F937F93FA
:100820008F939F93AF93BF93EF93FF9383E993E0ED
:1008300034DEFF91EF91BF91AF919F918F917F91A6
:100840006F915F914F913F912F910F900BBE0F9041
:100850000FBE0F901F90189583E993E0A6DD21E06D
:10086000892B09F420E0822F0895E3E9F3E0138255
:10087000128288EE93E0A0E0B0E084839583A683A3
:10088000B78389ED92E09183808385E391E095873A
:10089000848784E391E09787868780E391E0918B5A
:1008A000808B81E391E0938B828B82E391E0958B47
:1008B000848B86E391E0978B868B118E128E138E3C
:1008C000148E089508955FD1FDDFD2DCC2E1D2E03D
:1008D000F4DC2097E9F3A6DDFBCFCF92DF92EF9215
:1008E000FF920F931F93CF93DF936C017A018B01DB
:1008F000C0E0D0E0CE15DF0581F0D8016D918D010B
:10090000D601ED91FC910190F081E02DC601199581
:10091000892B11F02196EECF7E01C701DF91CF9197
:100920001F910F91FF90EF90DF90CF900895611588
:10093000710579F0FB0101900020E9F73197AF01D3
:10094000461B570BDC01ED91FC910280F381E02DF9
:10095000199480E090E00895EACFDC01ED91FC91DC
:100960000190F081E02D199467EE72E0E0CF0F93D3
:100970001F93CF93DF93EC01DADF8C01CE01F4DF1C
:10098000800F911FDF91CF911F910F9108950F93C9
:100990001F93CF93DF93EC01E0DF8C01CE01E4DF06
:1009A000800F911FDF91CF911F910F9108958F922A
:1009B0009F92AF92BF92EF92FF920F931F93CF93AC
:1009C000DF93CDB7DEB7A1970FB6F894DEBF0FBEA9
:1009D000CDBF7C01FA01CB0119A2223008F42AE034
:1009E0008E010F5D1F4F822E912CA12CB12CBF01C7
:1009F000A5019401E9D1F901CA01015011096A3038
:100A000010F4605D01C0695CD8016C93232B242B2A
:100A1000252B69F7B801C7018ADFA1960FB6F894B4
:100A2000DEBF0FBECDBFDF91CF911F910F91FF9021
:100A3000EF90BF90AF909F908F900895CF92DF92EC
:100A4000EF92FF920F931F93CF93DF932115310500
:100A500081F4DC01ED91FC910190F081E02D642F97
:100A6000DF91CF911F910F91FF90EF90DF90CF908A
:100A700019942A303105F1F477FF1BC06A017B011C
:100A8000EC016DE26ADF8C0144275527BA014C194D
:100A90005D096E097F092AE0CE0189DF800F911F71
:100AA000DF91CF911F910F91FF90EF90DF90CF904A
:100AB00008952AE0DF91CF911F910F91FF90EF9061
:100AC000DF90CF9074CF9A01AB01770F660B770B55
:100AD000B5CF0F931F93CF93DF93EC01F4DF8C011D
:100AE000CE0142DF800F911FDF91CF911F910F91B7
:100AF00008951F920F920FB60F9211242F933F93D8
:100B00008F939F93AF93BF93809131049091320460
:100B1000A0913304B09134043091300423E0230FCA
:100B20002D3720F40196A11DB11D05C026E8230F25
:100B30000296A11DB11D209330048093310490933F
:100B40003204A0933304B09334048091350490911F
:100B50003604A0913704B09138040196A11DB11D4F
:100B60008093350490933604A0933704B0933804EF
:100B7000BF91AF919F918F913F912F910F900FBE99
:100B80000F901F901895789484B5826084BD84B5C9
:100B9000816084BD85B5826085BD85B5816085BD78
:100BA000EEE6F0E0808181608083E1E8F0E0108291
:100BB000808182608083808181608083E0E8F0E0D2
:100BC000808181608083E1EBF0E0808184608083BC
:100BD000E0EBF0E0808181608083E1E9F0E08081FA
:100BE00082608083808181608083E0E9F0E08081A1
:100BF00081608083E1EAF0E080818260808380818F
:100C000081608083E0EAF0E0808181608083E1E2BE
:100C1000F1E0808182608083808181608083E0E276
:100C2000F1E0808181608083EAE7F0E08081846088
:100C300080838081826080838081816080838081E5
:100C4000806880831092C100089590E0FC01319784
:100C5000E231F10508F04DC08827EE58FF4F8F4F65
:100C6000D5C0809180008F7703C0809180008F7DF8
:100C700080938000089580918000877FF9CF84B5AC
:100C80008F7702C084B58F7D84BD08958091B000B8
:100C90008F7703C08091B0008F7D8093B00008955E
:100CA000809190008F7707C0809190008F7D03C066
:100CB00080919000877F8093900008958091A0009C
:100CC0008F7707C08091A0008F7D03C08091A00026
:100CD000877F8093A0000895809120018F7707C0BF
:100CE000809120018F7D03C080912001877F8093B8
:100CF00020010895CF93DF9390E0FC01E25BFE4F6B
:100D00002491FC01EC56FE4F8491882361F190E020
:100D1000880F991FFC01EC50FE4FC591D491FC0146
:100D2000E652FE4FA591B491611109C09FB7F894A6
:100D30008881209582238883EC912E230BC062301A
:100D400061F49FB7F8948881322F3095832388838C
:100D5000EC912E2B2C939FBF06C08FB7F894E8819F
:100D60002E2B28838FBFDF91CF9108951F93CF93B0
:100D7000DF93282F30E0F901E85FFE4F8491F901FD
:100D8000E25BFE4FD491F901EC56FE4FC491CC23A7
:100D9000B9F0162F811159DFEC2FF0E0EE0FFF1F95
:100DA000E652FE4FA591B4919FB7F894111104C07B
:100DB0008C91D095D82302C0EC91DE2BDC939FBFA1
:100DC000DF91CF911F910895A1E21A2EAA1BBB1BA0
:100DD000FD010DC0AA1FBB1FEE1FFF1FA217B30707
:100DE000E407F50720F0A21BB30BE40BF50B661F1D
:100DF000771F881F991F1A9469F7609570958095E1
:100E000090959B01AC01BD01CF010895EE0FFF1F2E
:100E1000881F8BBF0790F691E02D1994F894FFCFAF
:100E20005468697320697320746865206172647501
:100E3000696E6F20666F722048657861706F6421FB
:100E4000212100546F20636F6E6E6563742C2073D4
:100E50007461727420746865204C454420436F6E41
:100E600074726F6C6C657220417070206F6E2079A7
:100E70006F757220536D61727470686F6E6500617A
:100E80006E6420636F6E6E65637420746F20426CB5
:100E90007565746F6F74682048432D303500536555
:100EA00072766F20312076616C75653A200053654B
:100EB00072766F20322076616C75653A200053653A
:100EC00072766F20332076616C75653A2000546825
:100ED000652076616C75657320617265200A5331F7
:100EE0003D200053323D200053333D2000646566B1
:100EF00061756C7400000000006E026D040302B4A2
:100F000002D501EF01E1010D0A006E616E00696E0C
:060F100066006F7666002A
:00000001FF
