:100000000FC100003BC1000039C1000037C1000032
:1000100035C1000033C1000031C100002FC1000014
:100020002DC100002BC1000029C1000027C1000024
:1000300025C1000023C1000021C100001FC1000034
:100040001DC100001BC1000019C1000017C1000044
:1000500015C1000013C1000011C10000D6C5000089
:100060000DC1000091C30000C5C3000007C100001E
:1000700005C1000003C1000001C10000FFC0000075
:10008000FDC00000FBC00000F9C00000F7C0000088
:10009000F5C00000F3C00000F1C00000EFC0000098
:1000A000EDC00000EBC00000E9C00000E7C00000A8
:1000B000E5C00000E3C00000E1C00000DFC00000B8
:1000C000DDC00000DBC00000D9C00000D7C00000C8
:1000D000D5C00000D3C00000ECC3000020C4000065
:1000E000CDC000008E019701A101AA01B201BB01A0
:1000F000C401CB06CE06BD06C106C7060507D2065B
:10010000D606DC06E006E406EA06EE06F206050779
:10011000F806FC06000700000A0B02090C0D0E0889
:1001200007030401000000000000000000000000C0
:1001300000000000000000000000000000000000BF
:10014000000012111000000000000000000000007C
:10015000000000000000000000000000010210206C
:1001600020080810204010204080020102010804ED
:100170000201010204081020408080402010080481
:1001800002018004020180402010080402010804DA
:10019000020101020408102040800102040810201E
:1001A0004080050505050705080808080202020247
:1001B0000A0A080804040404010101010101010103
:1001C0000303030303030303040707070C0C0C0CCE
:1001D0000C0C0C0C020202020606060606060606B7
:1001E0000B0B0B0B0B0B0B0B000022002500280048
:1001F0002B002E003100340002010000050108012F
:100200000B0100002100240027002A002D003000EF
:10021000330001010000040107010A012C04C1049C
:1002200011241FBECFEFD1E2DEBFCDBF00E00CBF77
:1002300013E0A0E0B2E0E8E3FFE000E00BBF02C0A3
:1002400007900D92AA37B107D9F724E0AAE7B3E0E7
:1002500001C01D92AD3BB207E1F711E0C0E1D1E072
:1002600000E005C021970109802FFE015BD6CE304A
:10027000D10780E00807B1F7B2D35CC6C1CEFC015C
:1002800012821182148213821682158261E08DE03F
:10029000BDD561E08CE0BAD526E040E855E260E0EB
:1002A00070E087E194E00DC2FC01818192810895A4
:1002B000FC01838194810895FC01858196810895D4
:1002C0000895DF92EF92FF920F931F93CF93DF93E6
:1002D0008C0187E194E0F5D0181619060CF07DC06A
:1002E0008AE793E008D1EC014AE050E0BC018AE7DC
:1002F00093E07BD460E072E08AE793E0B9D34AE010
:1003000050E060E070E08AE793E06FD460E070E076
:10031000FB018827EE58FF4F8F4F04C6C134D1052B
:1003200019F468E072E034C061E172E031C0CE01DE
:100330009927C0970A9708F03FC0FC2E67E472E047
:1003400041C0C234D10519F468E172E021C061E214
:1003500072E01EC0CE019927C0970A9780F168E528
:1003600072E016C0C334D10519F468E272E010C01F
:1003700061E372E00DC0CE019927C0970A9750F54E
:10038000DC2E69E672E01EC0A39729F068E372E0F4
:100390008AE793E078D38F2D90E0C097F80192839D
:1003A00081838E2D90E0C097948383838D2D90E080
:1003B000C0979683858311C061E572E0E9CFEC2E8A
:1003C0006FE572E08AE793E053D36C2F8AE793E0FE
:1003D0006AD3E1CF63E772E0DBCF80E0DF91CF91BA
:1003E0001F910F91FF90EF90DF90089561E08DE0F5
:1003F0000DD561E08CE00AD526E040E855E260E0EA
:1004000070E08AE793E05DD16AE772E08AE793E003
:100410003AD366E173E08AE793E035D36DE972E0A1
:100420008AE793E030D369ED72E08AE793E02BD35B
:1004300061E08DE027C5CF93DF93CDB7DEB7279777
:100440000FB6F894DEBF0FBECDBFCE01019617DF09
:10045000CE01019636DF68EF72E08AE793E008D3B9
:10046000CE01019621DF4AE050E0BC018AE793E02B
:10047000BCD368E173E08AE793E0FAD2CE0101963B
:1004800017DF4AE050E0BC018AE793E0AED368E3AF
:1004900073E08AE793E0ECD2CE0101960DDF4AE0EB
:1004A00050E0BC018AE793E0A0D3CE01019608DFBB
:1004B00027960FB6F894DEBF0FBECDBFDF91CF9168
:1004C0000895FC01918D228D892F90E0805C9F4FD3
:1004D000821B91098F7399270895FC01918D828D5C
:1004E000981731F0828DE80FF11D858D90E0089509
:1004F0008FEF9FEF0895FC01918D828D981761F029
:10050000828DDF01A80FB11D5D968C91928D9F5F4A
:100510009F73928F90E008958FEF9FEF0895FC01F5
:10052000538D448D252F30E0842F90E0821B930B58
:10053000541710F0CF9608950197089583E294E040
:10054000892B39F080E090E0892B19F07CD1811162
:1005500024C080E090E0892B41F080E090E0892B7E
:1005600021F00E94000081111BC080E090E0892BE7
:1005700041F080E090E0892B21F00E940000811181
:1005800012C088EB94E0892B99F080E090E0892BF1
:1005900079F0EED181110AC008950E940000D9CFF0
:1005A0000E940000E2CF0E940000EBCF0C940000FC
:1005B0000895FC01848DDF01A80FB11DA35ABF4F20
:1005C0002C91848D90E001968F739927848FA68952
:1005D000B7892C93A089B1898C9180648C93938D79
:1005E000848D981306C00288F389E02D80818F7D69
:1005F00080830895EF92FF920F931F93CF93DF9321
:10060000EC0181E0888F9B8D8C8D981305C0E88963
:10061000F989808185FD23C0F62E0B8D10E00F5FD8
:100620001F4F0F731127E02E8C8DE8120BC00FB6F1
:1006300007FCFACFE889F989808185FFF5CFCE01E3
:10064000B8DFF2CF8B8DFE01E80FF11DE35AFF4FAB
:10065000F0820B8FEA89FB898081806207C0EE8976
:10066000FF896083E889F98980818064808381E0E3
:1006700090E0DF91CF911F910F91FF90EF9008953F
:10068000CF93DF93EC01888D8823C1F0EA89FB8941
:10069000808185FD05C0A889B9898C9186FD0EC031
:1006A0000FB607FCF5CF808185FFF2CFA889B98905
:1006B0008C9185FFEDCFCE017CDFE8CFDF91CF912C
:1006C0000895CF92DF92EF92FF921F93CF93DF9323
:1006D000EC016A017B01122FE889F98982E08083AD
:1006E0004115514E61057105A9F060E079E08DE397
:1006F00090E0A7019601F4D3DA01C9010197A1099D
:10070000B109B695A795979587959C01211580E12C
:100710003807A0F0E889F989108260E874E88EE172
:1007200090E0A7019601DCD3DA01C9010197A10984
:10073000B109B695A795979587959C01EC85FD85A0
:100740003083EE85FF852083188EEC89FD89108328
:10075000EA89FB89808180618083EA89FB898081C5
:1007600088608083EA89FB89808180688083EA8948
:10077000FB8980818F7D8083DF91CF911F91FF90D6
:10078000EF90DF90CF9008951F920F920FB60F92C7
:1007900011240BB60F922F938F939F93EF93FF9398
:1007A000E0918A03F0918B038081E0919003F091B6
:1007B000910382FD12C09081809193038F5F8F73AC
:1007C00020919403821751F0E0919303F0E0E658F2
:1007D000FC4F958F8093930301C08081FF91EF912F
:1007E0009F918F912F910F900BBE0F900FBE0F9086
:1007F0001F9018951F920F920FB60F9211240BB6EF
:100800000F922F933F934F935F936F937F938F93A9
:100810009F93AF93BF93EF93FF938AE793E0C9DE73
:10082000FF91EF91BF91AF919F918F917F916F91C8
:100830005F914F913F912F910F900BBE0F900FBE84
:100840000F901F9018958AE793E03BDE21E0892BFB
:1008500009F420E0822F0895EAE7F3E01382128280
:1008600088EE93E0A0E0B0E084839583A683B7830D
:100870008CE593E09183808385EC90E09587848775
:1008800084EC90E09787868780EC90E0918B808B5A
:1008900081EC90E0938B828B82EC90E0958B848B43
:1008A00086EC90E0978B868B118E128E138E148EB1
:1008B00008951F920F920FB60F9211240BB60F924C
:1008C0002F938F939F93EF93FF93E0912704F091E1
:1008D00028048081E0912D04F0912E0482FD12C045
:1008E0009081809130048F5F8F7320913104821743
:1008F00051F0E0913004F0E0E95EFB4F958F80937A
:10090000300401C08081FF91EF919F918F912F91D1
:100910000F900BBE0F900FBE0F901F9018951F9257
:100920000F920FB60F9211240BB60F922F933F9395
:100930004F935F936F937F938F939F93AF93BF93E7
:10094000EF93FF9387E194E034DEFF91EF91BF9145
:10095000AF919F918F917F916F915F914F913F9157
:100960002F910F900BBE0F900FBE0F901F901895F8
:1009700087E194E0A6DD21E0892B09F420E0822FB5
:100980000895E7E1F4E01382128288EE93E0A0E09C
:10099000B0E084839583A683B7838CE593E091834D
:1009A000808385E391E09587848784E391E097874E
:1009B000868780E391E0918B808B81E391E0938B3C
:1009C000828B82E391E0958B848B86E391E0978B19
:1009D000868B118E128E138E148E089508955FD11A
:1009E000FDDF04DDCEE9D2E026DD2097E9F3A6DDC8
:1009F000FBCFCF92DF92EF92FF920F931F93CF9393
:100A0000DF936C017A018B01C0E0D0E0CE15DF05E9
:100A100081F0D8016D918D01D601ED91FC9101908D
:100A2000F081E02DC6011995892B11F02196EECFAA
:100A30007E01C701DF91CF911F910F91FF90EF9041
:100A4000DF90CF9008956115710579F0FB01019059
:100A50000020E9F73197AF01461B570BDC01ED9100
:100A6000FC910280F381E02D199480E090E00895DC
:100A7000EACFDC01ED91FC910190F081E02D199419
:100A80006AE673E0E0CF0F931F93CF93DF93EC01FF
:100A9000DADF8C01CE01F4DF800F911FDF91CF915F
:100AA0001F910F9108950F931F93CF93DF93EC0144
:100AB000E0DF8C01CE01E4DF800F911FDF91CF9149
:100AC0001F910F9108958F929F92AF92BF92EF92D4
:100AD000FF920F931F93CF93DF93CDB7DEB7A1970C
:100AE0000FB6F894DEBF0FBECDBF7C01FA01CB017B
:100AF00019A2223008F42AE08E010F5D1F4F822ECA
:100B0000912CA12CB12CBF01A5019401E9D1F901CF
:100B1000CA01015011096A3010F4605D01C0695CBE
:100B2000D8016C93232B242B252B69F7B801C7011F
:100B30008ADFA1960FB6F894DEBF0FBECDBFDF915E
:100B4000CF911F910F91FF90EF90BF90AF909F902A
:100B50008F900895CF92DF92EF92FF920F931F93A1
:100B6000CF93DF932115310581F4DC01ED91FC91E8
:100B70000190F081E02D642FDF91CF911F910F91B3
:100B8000FF90EF90DF90CF9019942A303105F1F467
:100B900077FF1BC06A017B01EC016DE26ADF8C010B
:100BA00044275527BA014C195D096E097F092AE0CF
:100BB000CE0189DF800F911FDF91CF911F910F919F
:100BC000FF90EF90DF90CF9008952AE0DF91CF91D2
:100BD0001F910F91FF90EF90DF90CF9074CF9A010B
:100BE000AB01770F660B770BB5CF0F931F93CF93A6
:100BF000DF93EC01F4DF8C01CE0142DF800F911F07
:100C0000DF91CF911F910F9108951F920F920FB610
:100C10000F9211242F933F938F939F93AF93BF9382
:100C20008091B5049091B604A091B704B091B80436
:100C30003091B40423E0230F2D3720F40196A11D39
:100C4000B11D05C026E8230F0296A11DB11D2093FA
:100C5000B4048093B5049093B604A093B704B09302
:100C6000B8048091B9049091BA04A091BB04B091EA
:100C7000BC040196A11DB11D8093B9049093BA04E0
:100C8000A093BB04B093BC04BF91AF919F918F918F
:100C90003F912F910F900FBE0F901F901895789451
:100CA00084B5826084BD84B5816084BD85B5826071
:100CB00085BD85B5816085BDEEE6F0E0808181600F
:100CC0008083E1E8F0E0108280818260808380810F
:100CD00081608083E0E8F0E0808181608083E1EBE7
:100CE000F0E0808184608083E0EBF0E080818160CF
:100CF0008083E1E9F0E0808182608083808181608F
:100D00008083E0E9F0E0808181608083E1EAF0E0C7
:100D1000808182608083808181608083E0EAF0E06E
:100D2000808181608083E1E2F1E080818260808364
:100D3000808181608083E0E2F1E080818160808356
:100D4000EAE7F0E080818460808380818260808334
:100D50008081816080838081806880831092C1005F
:100D6000089590E0FC013197E231F10508F04DC0A3
:100D70008827E758FF4F8F4FD5C0809180008F772D
:100D800003C0809180008F7D8093800008958091C2
:100D90008000877FF9CF84B58F7702C084B58F7DBF
:100DA00084BD08958091B0008F7703C08091B0001A
:100DB0008F7D8093B0000895809190008F7707C059
:100DC000809190008F7D03C080919000877F8093F9
:100DD000900008958091A0008F7707C08091A000B7
:100DE0008F7D03C08091A000877F8093A00008952D
:100DF000809120018F7707C0809120018F7D03C0F3
:100E000080912001877F809320010895CF93DF9305
:100E100090E0FC01E45AFE4F2491FC01EE55FE4F98
:100E20008491882361F190E0880F991FFC01EE5FA7
:100E3000FD4FC591D491FC01E851FE4FA591B491AD
:100E4000611109C09FB7F894888120958223888317
:100E5000EC912E230BC0623061F49FB7F894888127
:100E6000322F309583238883EC912E2B2C939FBFB8
:100E700006C08FB7F894E8812E2B28838FBFDF91AF
:100E8000CF9108951F93CF93DF93282F30E0F9017E
:100E9000EA5EFE4F8491F901E45AFE4FD491F901C4
:100EA000EE55FE4FC491CC23B9F0162F811159DFB6
:100EB000EC2FF0E0EE0FFF1FE851FE4FA591B4912B
:100EC0009FB7F894111104C08C91D095D82302C01B
:100ED000EC91DE2BDC939FBFDF91CF911F910895A2
:100EE000A1E21A2EAA1BBB1BFD010DC0AA1FBB1F2E
:100EF000EE1FFF1FA217B307E407F50720F0A21BA0
:100F0000B30BE40BF50B661F771F881F991F1A940C
:100F100069F760957095809590959B01AC01BD0136
:100F2000CF010895EE0FFF1F881F8BBF0790F6912A
:080F3000E02D1994F894FFCFA5
:100F3800436F756E743A200064617461203D2041EE
:100F4800004361736520300064617461203D204274
:100F5800004361736520320064617461203D204361
:100F68000043617365203400436173652036006473
:100F7800656661756C7400536572766F31203D202B
:100F8800004361736520310043617365203300536A
:100F98006572766F32203D2000536572766F33207C
:100FA8003D200043617365203500546869732069EA
:100FB80073207468652061726475696E6F20666F4E
:100FC800722048657861706F6421212100546F2078
:100FD800636F6E6E6563742C207374617274207411
:100FE8006865204C454420436F6E74726F6C6C6565
:100FF8007220417070206F6E20796F757220536D6A
:1010080061727470686F6E6500616E6420636F6EE4
:101018006E65637420746F20426C7565746F6F74AD
:10102800682048432D3035005072696E74696E67C8
:10103800207468652056616C756520666F72205350
:101048006572766F313A20005072696E74696E6706
:10105800207468652056616C756520666F72205330
:101068006572766F323A20005072696E74696E67E5
:10107800207468652056616C756520666F72205310
:101088006572766F333A200000000000FA02F90416
:101098008F02400361027B026D020D0A006E616ED1
:0A10A80000696E66006F76660000B6
:00000001FF
